{
  "_format": "hh-sol-artifact-1",
  "contractName": "DelegatableResolverFactory",
  "sourceName": "@ensdomains/ens-contracts/contracts/resolvers/DelegatableResolverFactory.sol",
  "abi": [
    {
      "inputs": [
        {
          "internalType": "contract DelegatableResolver",
          "name": "_implementation",
          "type": "address"
        }
      ],
      "stateMutability": "nonpayable",
      "type": "constructor"
    },
    {
      "inputs": [],
      "name": "CreateFail",
      "type": "error"
    },
    {
      "anonymous": false,
      "inputs": [
        {
          "indexed": false,
          "internalType": "address",
          "name": "resolver",
          "type": "address"
        },
        {
          "indexed": false,
          "internalType": "address",
          "name": "owner",
          "type": "address"
        }
      ],
      "name": "NewDelegatableResolver",
      "type": "event"
    },
    {
      "inputs": [
        {
          "internalType": "address",
          "name": "owner",
          "type": "address"
        }
      ],
      "name": "create",
      "outputs": [
        {
          "internalType": "contract DelegatableResolver",
          "name": "clone",
          "type": "address"
        }
      ],
      "stateMutability": "nonpayable",
      "type": "function"
    },
    {
      "inputs": [],
      "name": "implementation",
      "outputs": [
        {
          "internalType": "contract DelegatableResolver",
          "name": "",
          "type": "address"
        }
      ],
      "stateMutability": "view",
      "type": "function"
    },
    {
      "inputs": [
        {
          "internalType": "address",
          "name": "owner",
          "type": "address"
        }
      ],
      "name": "predictAddress",
      "outputs": [
        {
          "internalType": "address",
          "name": "clone",
          "type": "address"
        }
      ],
      "stateMutability": "nonpayable",
      "type": "function"
    }
  ],
  "bytecode": "0x60803461007457601f61053c38819003918201601f19168301916001600160401b038311848410176100795780849260209460405283398101031261007457516001600160a01b0381169081900361007457600080546001600160a01b0319169190911790556040516104ac90816100908239f35b600080fd5b634e487b7160e01b600052604160045260246000fdfe604060808152600436101561001357600080fd5b6000803560e01c9182635c60da1b146101f15782639ed933181461004757505063a8e666ab1461004257600080fd5b610240565b346101ed5761005536610219565b81516bffffffffffffffffffffffff19606083901b16602080830191825260148352601f19959092610088603482610425565b8154905192865191606160f81b83526039850160f01b60018401527f3d81600a3d39f33d3d3d3d363d3d37610000000000000000000000000000000060038401526002850160f01b8060138501526560373639366160d01b6015850152601b84015262013d7360e81b601d8401526bffffffffffffffffffffffff199060601b16858301527f5af43d3d93803e603557fd5bf3000000000000000000000000000000000000006034830152836041830191985b868210156101d85750604397986000198288036101000a011990511682528460f01b9101526001600160a01b03958693019082f5169283156101c8579380927f647d06615acc63013ef37426282da141fbae4e222149a36885ed327b085edd13926101c4968351928784521690820152a1516001600160a01b0390911681529081906020820190565b0390f35b60048551631d7fde3160e31b8152fd5b86808b94839c5181520193019101909861013b565b5080fd5b50346102165780600319360112610216576001600160a01b0390541660805260206080f35b80fd5b602090600319011261023b576004356001600160a01b038116810361023b5790565b600080fd5b3461023b5761024e36610219565b60405160609190911b6bffffffffffffffffffffffff191660208083019182526014835291601f1991610282603483610425565b60005491519060405192606160f81b84526039830160f01b60018501527f3d81600a3d39f33d3d3d3d363d3d37610000000000000000000000000000000060038501526002830160f01b8060138601526560373639366160d01b6015860152601b85015262013d7360e81b601d8501526bffffffffffffffffffffffff199060601b16858401527f5af43d3d93803e603557fd5bf30000000000000000000000000000000000000060348401528160418401915b86808310156104135781518382036101000a600019011916845260f085901b838501526043850186206040517fff000000000000000000000000000000000000000000000000000000000000008184019081523060601b6bffffffffffffffffffffffff191660018201526000601582015260358101929092526001600160a01b03916103f3916103e79182916103d88d826055850103908101835282610425565b5190206001600160a01b031690565b6001600160a01b031690565b16801561040257604051908152f35b6004604051631d7fde3160e31b8152fd5b81518452928301929186019101610336565b90601f8019910116810190811067ffffffffffffffff82111761044757604052565b7f4e487b7100000000000000000000000000000000000000000000000000000000600052604160045260246000fdfea26469706673582212201e86c25f49549d16857b8307576e8afa28fdd403b0ad275fca5ed160206343dd64736f6c63430008130033",
  "linkReferences": {},
  "deployedLinkReferences": {}
}