{
  "_format": "hh-sol-artifact-1",
  "contractName": "L2ReverseRegistrar",
  "sourceName": "@ensdomains/ens-contracts/contracts/reverseRegistrar/L2ReverseRegistrar.sol",
  "abi": [
    {
      "inputs": [
        {
          "internalType": "bytes32",
          "name": "L2ReverseNode",
          "type": "bytes32"
        }
      ],
      "stateMutability": "nonpayable",
      "type": "constructor"
    },
    {
      "inputs": [],
      "name": "InvalidSignature",
      "type": "error"
    },
    {
      "anonymous": false,
      "inputs": [
        {
          "indexed": true,
          "internalType": "bytes32",
          "name": "node",
          "type": "bytes32"
        },
        {
          "indexed": false,
          "internalType": "string",
          "name": "name",
          "type": "string"
        }
      ],
      "name": "NameChanged",
      "type": "event"
    },
    {
      "anonymous": false,
      "inputs": [
        {
          "indexed": true,
          "internalType": "address",
          "name": "previousOwner",
          "type": "address"
        },
        {
          "indexed": true,
          "internalType": "address",
          "name": "newOwner",
          "type": "address"
        }
      ],
      "name": "OwnershipTransferred",
      "type": "event"
    },
    {
      "anonymous": false,
      "inputs": [
        {
          "indexed": true,
          "internalType": "address",
          "name": "addr",
          "type": "address"
        },
        {
          "indexed": true,
          "internalType": "bytes32",
          "name": "node",
          "type": "bytes32"
        }
      ],
      "name": "ReverseClaimed",
      "type": "event"
    },
    {
      "anonymous": false,
      "inputs": [
        {
          "indexed": true,
          "internalType": "bytes32",
          "name": "node",
          "type": "bytes32"
        },
        {
          "indexed": true,
          "internalType": "string",
          "name": "indexedKey",
          "type": "string"
        },
        {
          "indexed": false,
          "internalType": "string",
          "name": "key",
          "type": "string"
        },
        {
          "indexed": false,
          "internalType": "string",
          "name": "value",
          "type": "string"
        }
      ],
      "name": "TextChanged",
      "type": "event"
    },
    {
      "anonymous": false,
      "inputs": [
        {
          "indexed": true,
          "internalType": "bytes32",
          "name": "node",
          "type": "bytes32"
        },
        {
          "indexed": false,
          "internalType": "uint64",
          "name": "newVersion",
          "type": "uint64"
        }
      ],
      "name": "VersionChanged",
      "type": "event"
    },
    {
      "inputs": [],
      "name": "L2_REVERSE_NODE",
      "outputs": [
        {
          "internalType": "bytes32",
          "name": "",
          "type": "bytes32"
        }
      ],
      "stateMutability": "view",
      "type": "function"
    },
    {
      "inputs": [
        {
          "internalType": "address",
          "name": "addr",
          "type": "address"
        }
      ],
      "name": "clearRecords",
      "outputs": [],
      "stateMutability": "nonpayable",
      "type": "function"
    },
    {
      "inputs": [
        {
          "internalType": "bytes32",
          "name": "",
          "type": "bytes32"
        }
      ],
      "name": "lastUpdated",
      "outputs": [
        {
          "internalType": "uint256",
          "name": "",
          "type": "uint256"
        }
      ],
      "stateMutability": "view",
      "type": "function"
    },
    {
      "inputs": [
        {
          "internalType": "bytes[]",
          "name": "data",
          "type": "bytes[]"
        }
      ],
      "name": "multicall",
      "outputs": [
        {
          "internalType": "bytes[]",
          "name": "results",
          "type": "bytes[]"
        }
      ],
      "stateMutability": "nonpayable",
      "type": "function"
    },
    {
      "inputs": [
        {
          "internalType": "bytes32",
          "name": "nodehash",
          "type": "bytes32"
        },
        {
          "internalType": "bytes[]",
          "name": "data",
          "type": "bytes[]"
        }
      ],
      "name": "multicallWithNodeCheck",
      "outputs": [
        {
          "internalType": "bytes[]",
          "name": "results",
          "type": "bytes[]"
        }
      ],
      "stateMutability": "nonpayable",
      "type": "function"
    },
    {
      "inputs": [
        {
          "internalType": "bytes32",
          "name": "node",
          "type": "bytes32"
        }
      ],
      "name": "name",
      "outputs": [
        {
          "internalType": "string",
          "name": "",
          "type": "string"
        }
      ],
      "stateMutability": "view",
      "type": "function"
    },
    {
      "inputs": [
        {
          "internalType": "address",
          "name": "addr",
          "type": "address"
        }
      ],
      "name": "node",
      "outputs": [
        {
          "internalType": "bytes32",
          "name": "",
          "type": "bytes32"
        }
      ],
      "stateMutability": "view",
      "type": "function"
    },
    {
      "inputs": [],
      "name": "owner",
      "outputs": [
        {
          "internalType": "address",
          "name": "",
          "type": "address"
        }
      ],
      "stateMutability": "view",
      "type": "function"
    },
    {
      "inputs": [],
      "name": "renounceOwnership",
      "outputs": [],
      "stateMutability": "nonpayable",
      "type": "function"
    },
    {
      "inputs": [
        {
          "internalType": "string",
          "name": "name",
          "type": "string"
        }
      ],
      "name": "setName",
      "outputs": [
        {
          "internalType": "bytes32",
          "name": "",
          "type": "bytes32"
        }
      ],
      "stateMutability": "nonpayable",
      "type": "function"
    },
    {
      "inputs": [
        {
          "internalType": "address",
          "name": "addr",
          "type": "address"
        },
        {
          "internalType": "string",
          "name": "name",
          "type": "string"
        }
      ],
      "name": "setNameForAddr",
      "outputs": [
        {
          "internalType": "bytes32",
          "name": "",
          "type": "bytes32"
        }
      ],
      "stateMutability": "nonpayable",
      "type": "function"
    },
    {
      "inputs": [
        {
          "internalType": "address",
          "name": "addr",
          "type": "address"
        },
        {
          "internalType": "string",
          "name": "name",
          "type": "string"
        },
        {
          "internalType": "uint256",
          "name": "inceptionDate",
          "type": "uint256"
        },
        {
          "internalType": "bytes",
          "name": "signature",
          "type": "bytes"
        }
      ],
      "name": "setNameForAddrWithSignature",
      "outputs": [
        {
          "internalType": "bytes32",
          "name": "",
          "type": "bytes32"
        }
      ],
      "stateMutability": "nonpayable",
      "type": "function"
    },
    {
      "inputs": [
        {
          "internalType": "address",
          "name": "contractAddr",
          "type": "address"
        },
        {
          "internalType": "address",
          "name": "owner",
          "type": "address"
        },
        {
          "internalType": "string",
          "name": "name",
          "type": "string"
        },
        {
          "internalType": "uint256",
          "name": "inceptionDate",
          "type": "uint256"
        },
        {
          "internalType": "bytes",
          "name": "signature",
          "type": "bytes"
        }
      ],
      "name": "setNameForAddrWithSignatureAndOwnable",
      "outputs": [
        {
          "internalType": "bytes32",
          "name": "",
          "type": "bytes32"
        }
      ],
      "stateMutability": "nonpayable",
      "type": "function"
    },
    {
      "inputs": [
        {
          "internalType": "string",
          "name": "key",
          "type": "string"
        },
        {
          "internalType": "string",
          "name": "value",
          "type": "string"
        }
      ],
      "name": "setText",
      "outputs": [
        {
          "internalType": "bytes32",
          "name": "",
          "type": "bytes32"
        }
      ],
      "stateMutability": "nonpayable",
      "type": "function"
    },
    {
      "inputs": [
        {
          "internalType": "address",
          "name": "addr",
          "type": "address"
        },
        {
          "internalType": "string",
          "name": "key",
          "type": "string"
        },
        {
          "internalType": "string",
          "name": "value",
          "type": "string"
        }
      ],
      "name": "setTextForAddr",
      "outputs": [
        {
          "internalType": "bytes32",
          "name": "",
          "type": "bytes32"
        }
      ],
      "stateMutability": "nonpayable",
      "type": "function"
    },
    {
      "inputs": [
        {
          "internalType": "address",
          "name": "addr",
          "type": "address"
        },
        {
          "internalType": "string",
          "name": "key",
          "type": "string"
        },
        {
          "internalType": "string",
          "name": "value",
          "type": "string"
        },
        {
          "internalType": "uint256",
          "name": "inceptionDate",
          "type": "uint256"
        },
        {
          "internalType": "bytes",
          "name": "signature",
          "type": "bytes"
        }
      ],
      "name": "setTextForAddrWithSignature",
      "outputs": [
        {
          "internalType": "bytes32",
          "name": "",
          "type": "bytes32"
        }
      ],
      "stateMutability": "nonpayable",
      "type": "function"
    },
    {
      "inputs": [
        {
          "internalType": "address",
          "name": "contractAddr",
          "type": "address"
        },
        {
          "internalType": "address",
          "name": "owner",
          "type": "address"
        },
        {
          "internalType": "string",
          "name": "key",
          "type": "string"
        },
        {
          "internalType": "string",
          "name": "value",
          "type": "string"
        },
        {
          "internalType": "uint256",
          "name": "inceptionDate",
          "type": "uint256"
        },
        {
          "internalType": "bytes",
          "name": "signature",
          "type": "bytes"
        }
      ],
      "name": "setTextForAddrWithSignatureAndOwnable",
      "outputs": [
        {
          "internalType": "bytes32",
          "name": "",
          "type": "bytes32"
        }
      ],
      "stateMutability": "nonpayable",
      "type": "function"
    },
    {
      "inputs": [
        {
          "internalType": "bytes4",
          "name": "interfaceID",
          "type": "bytes4"
        }
      ],
      "name": "supportsInterface",
      "outputs": [
        {
          "internalType": "bool",
          "name": "",
          "type": "bool"
        }
      ],
      "stateMutability": "view",
      "type": "function"
    },
    {
      "inputs": [
        {
          "internalType": "bytes32",
          "name": "node",
          "type": "bytes32"
        },
        {
          "internalType": "string",
          "name": "key",
          "type": "string"
        }
      ],
      "name": "text",
      "outputs": [
        {
          "internalType": "string",
          "name": "",
          "type": "string"
        }
      ],
      "stateMutability": "view",
      "type": "function"
    },
    {
      "inputs": [
        {
          "internalType": "address",
          "name": "newOwner",
          "type": "address"
        }
      ],
      "name": "transferOwnership",
      "outputs": [],
      "stateMutability": "nonpayable",
      "type": "function"
    }
  ],
  "bytecode": "0x60a06040523480156200001157600080fd5b506040516200369638038062003696833981810160405281019062000037919062000174565b80620000586200004c6200006860201b60201c565b6200007060201b60201c565b80608081815250505050620001a6565b600033905090565b60008060009054906101000a900473ffffffffffffffffffffffffffffffffffffffff169050816000806101000a81548173ffffffffffffffffffffffffffffffffffffffff021916908373ffffffffffffffffffffffffffffffffffffffff1602179055508173ffffffffffffffffffffffffffffffffffffffff168173ffffffffffffffffffffffffffffffffffffffff167f8be0079c531659141344cd1fd0a4f28419497f9722a3daafe3b4186f6b6457e060405160405180910390a35050565b600080fd5b6000819050919050565b6200014e8162000139565b81146200015a57600080fd5b50565b6000815190506200016e8162000143565b92915050565b6000602082840312156200018d576200018c62000134565b5b60006200019d848285016200015d565b91505092915050565b6080516134bf620001d7600039600081816109f301528181610b4701528181610ca50152610f5501526134bf6000f3fe608060405234801561001057600080fd5b506004361061012c5760003560e01c8063ac9650d8116100ad578063c47f002711610071578063c47f0027146103a3578063c9119941146103d3578063e32954eb14610403578063f2fde38b14610433578063fe43ca311461044f5761012c565b8063ac9650d8146102c7578063b557a1ff146102f7578063bffbe61c14610327578063c01f93d314610357578063c0a404bc146103875761012c565b8063715018a6116100f4578063715018a6146102215780637f87032e1461022b5780638da5cb5b1461025b578063a46491d914610279578063a9c73e80146102975761012c565b806301ffc9a714610131578063060eb2f5146101615780630affd6531461019157806359d1d43c146101c1578063691f3431146101f1575b600080fd5b61014b60048036038101906101469190611ab6565b61047f565b6040516101589190611afe565b60405180910390f35b61017b60048036038101906101769190611b4f565b6105c9565b6040516101889190611b95565b60405180910390f35b6101ab60048036038101906101a69190611e21565b6105e1565b6040516101b89190611ee3565b60405180910390f35b6101db60048036038101906101d69190611f5e565b6106d2565b6040516101e8919061203d565b60405180910390f35b61020b60048036038101906102069190611b4f565b6107e3565b604051610218919061203d565b60405180910390f35b6102296108d4565b005b6102456004803603810190610240919061205f565b6108e8565b6040516102529190611ee3565b60405180910390f35b6102636109c8565b604051610270919061210d565b60405180910390f35b6102816109f1565b60405161028e9190611ee3565b60405180910390f35b6102b160048036038101906102ac9190612128565b610a15565b6040516102be9190611ee3565b60405180910390f35b6102e160048036038101906102dc91906121ff565b610a2e565b6040516102ee9190612363565b60405180910390f35b610311600480360381019061030c9190612385565b610a46565b60405161031e9190611ee3565b60405180910390f35b610341600480360381019061033c9190612470565b610b43565b60405161034e9190611ee3565b60405180910390f35b610371600480360381019061036c919061249d565b610b9d565b60405161037e9190611ee3565b60405180910390f35b6103a1600480360381019061039c9190612470565b610c89565b005b6103bd60048036038101906103b89190612575565b610db1565b6040516103ca9190611ee3565b60405180910390f35b6103ed60048036038101906103e891906125be565b610dc4565b6040516103fa9190611ee3565b60405180910390f35b61041d6004803603810190610418919061261a565b610df3565b60405161042a9190612363565b60405180910390f35b61044d60048036038101906104489190612470565b610e09565b005b6104696004803603810190610464919061267a565b610e8c565b6040516104769190611ee3565b60405180910390f35b60007fe5216c9a000000000000000000000000000000000000000000000000000000007bffffffffffffffffffffffffffffffffffffffffffffffffffffffff1916827bffffffffffffffffffffffffffffffffffffffffffffffffffffffff1916148061054a57507f59d1d43c000000000000000000000000000000000000000000000000000000007bffffffffffffffffffffffffffffffffffffffffffffffffffffffff1916827bffffffffffffffffffffffffffffffffffffffffffffffffffffffff1916145b806105b257507f691f3431000000000000000000000000000000000000000000000000000000007bffffffffffffffffffffffffffffffffffffffffffffffffffffffff1916827bffffffffffffffffffffffffffffffffffffffffffffffffffffffff1916145b806105c257506105c182610ecb565b5b9050919050565b60026020528060005260406000206000915090505481565b6000806105ed87610f45565b90506000630affd65360e01b888888886040516020016106119594939291906127d5565b604051602081830303815290604052805190602001209050600061063482610fa4565b90506106408989610fda565b8015610653575061065288828761108a565b5b80156106715750600260008481526020019081526020016000205486115b801561067d5750428610155b156106975761068c83886111ce565b8293505050506106c9565b6040517f8baa579f00000000000000000000000000000000000000000000000000000000815260040160405180910390fd5b95945050505050565b6060600360006001600087815260200190815260200160002060009054906101000a900467ffffffffffffffff1667ffffffffffffffff1667ffffffffffffffff16815260200190815260200160002060008581526020019081526020016000208383604051610743929190612855565b9081526020016040518091039020805461075c9061289d565b80601f01602080910402602001604051908101604052809291908181526020018280546107889061289d565b80156107d55780601f106107aa576101008083540402835291602001916107d5565b820191906000526020600020905b8154815290600101906020018083116107b857829003601f168201915b505050505090509392505050565b6060600460006001600085815260200190815260200160002060009054906101000a900467ffffffffffffffff1667ffffffffffffffff1667ffffffffffffffff1681526020019081526020016000206000838152602001908152602001600020805461084f9061289d565b80601f016020809104026020016040519081016040528092919081815260200182805461087b9061289d565b80156108c85780601f1061089d576101008083540402835291602001916108c8565b820191906000526020600020905b8154815290600101906020018083116108ab57829003601f168201915b50505050509050919050565b6108dc611277565b6108e660006112f5565b565b6000806108f486610f45565b90506000637f87032e60e01b87878760405160200161091694939291906128ce565b604051602081830303815290604052805190602001209050600061093982610fa4565b90506109468882876113b9565b1580610965575060026000848152602001908152602001600020548611155b8061096f57504286105b156109a6576040517f8baa579f00000000000000000000000000000000000000000000000000000000815260040160405180910390fd5b6109b083886111ce565b6109ba8387611448565b829350505050949350505050565b60008060009054906101000a900473ffffffffffffffffffffffffffffffffffffffff16905090565b7f000000000000000000000000000000000000000000000000000000000000000081565b6000610a243386868686610e8c565b9050949350505050565b6060610a3e6000801b8484611464565b905092915050565b600080610a528a610f45565b9050600063b557a1ff60e01b8b8b8b8b8b8b8b604051602001610a7c989796959493929190612918565b6040516020818303038152906040528051906020012090506000610a9f82610fa4565b9050610aab8c8c610fda565b8015610abe5750610abd8b828761108a565b5b8015610adc5750600260008481526020019081526020016000205486115b8015610ae85750428610155b15610b0557610afa838b8b8b8b611633565b829350505050610b37565b6040517f8baa579f00000000000000000000000000000000000000000000000000000000815260040160405180910390fd5b98975050505050505050565b60007f0000000000000000000000000000000000000000000000000000000000000000610b6f8361171d565b604051602001610b809291906129a5565b604051602081830303815290604052805190602001209050919050565b600080610ba989610f45565b9050600063c01f93d360e01b8a8a8a8a8a8a604051602001610bd197969594939291906129d1565b6040516020818303038152906040528051906020012090506000610bf482610fa4565b9050610c018b82876113b9565b1580610c20575060026000848152602001908152602001600020548611155b80610c2a57504286115b15610c61576040517f8baa579f00000000000000000000000000000000000000000000000000000000815260040160405180910390fd5b610c6e838b8b8b8b611633565b610c788387611448565b829350505050979650505050505050565b80610c93816117a5565b506000610c9f8361171d565b905060007f000000000000000000000000000000000000000000000000000000000000000082604051602001610cd69291906129a5565b60405160208183030381529060405280519060200120905060016000828152602001908152602001600020600081819054906101000a900467ffffffffffffffff1680929190610d2590612a6f565b91906101000a81548167ffffffffffffffff021916908367ffffffffffffffff16021790555050807fc6621ccb8f3f5a04bb6502154b2caf6adf5983fe76dfef1cfc9c42e3579db4446001600084815260200190815260200160002060009054906101000a900467ffffffffffffffff16604051610da39190612aae565b60405180910390a250505050565b6000610dbd3383610dc4565b9050919050565b600082610dd0816117a5565b506000610ddc85610f45565b9050610de881856111ce565b809250505092915050565b6060610e00848484611464565b90509392505050565b610e11611277565b600073ffffffffffffffffffffffffffffffffffffffff168173ffffffffffffffffffffffffffffffffffffffff1603610e80576040517f08c379a0000000000000000000000000000000000000000000000000000000008152600401610e7790612b3b565b60405180910390fd5b610e89816112f5565b50565b600085610e98816117a5565b506000610ea488610f45565b9050610eb38188888888611633565b610ebd8142611448565b809250505095945050505050565b60007fd700ff33000000000000000000000000000000000000000000000000000000007bffffffffffffffffffffffffffffffffffffffffffffffffffffffff1916827bffffffffffffffffffffffffffffffffffffffffffffffffffffffff19161480610f3e5750610f3d8261182b565b5b9050919050565b600080610f518361171d565b90507f000000000000000000000000000000000000000000000000000000000000000081604051602001610f869291906129a5565b60405160208183030381529060405280519060200120915050919050565b60007f19457468657265756d205369676e6564204d6573736167653a0a33320000000060005281601c52603c6000209050919050565b60008273ffffffffffffffffffffffffffffffffffffffff16638da5cb5b6040518163ffffffff1660e01b8152600401602060405180830381865afa92505050801561104457506040513d601f19601f820116820180604052508101906110419190612b70565b60015b6110515760009050611084565b8273ffffffffffffffffffffffffffffffffffffffff168173ffffffffffffffffffffffffffffffffffffffff16149150505b92915050565b60008060008573ffffffffffffffffffffffffffffffffffffffff16631626ba7e60e01b86866040516024016110c1929190612be7565b604051602081830303815290604052907bffffffffffffffffffffffffffffffffffffffffffffffffffffffff19166020820180517bffffffffffffffffffffffffffffffffffffffffffffffffffffffff838183161783525050505060405161112b9190612c53565b600060405180830381855afa9150503d8060008114611166576040519150601f19603f3d011682016040523d82523d6000602084013e61116b565b606091505b509150915081801561117f57506020815110155b80156111c35750631626ba7e60e01b7bffffffffffffffffffffffffffffffffffffffffffffffffffffffff1916818060200190518101906111c19190612c7f565b145b925050509392505050565b80600460006001600086815260200190815260200160002060009054906101000a900467ffffffffffffffff1667ffffffffffffffff1667ffffffffffffffff1681526020019081526020016000206000848152602001908152602001600020908161123a9190612e58565b50817fb7d29e911041e8d9b843369e890bcb72c9388692ba48b65ac54e7214c4c348f78260405161126b919061203d565b60405180910390a25050565b61127f6118a5565b73ffffffffffffffffffffffffffffffffffffffff1661129d6109c8565b73ffffffffffffffffffffffffffffffffffffffff16146112f3576040517f08c379a00000000000000000000000000000000000000000000000000000000081526004016112ea90612f76565b60405180910390fd5b565b60008060009054906101000a900473ffffffffffffffffffffffffffffffffffffffff169050816000806101000a81548173ffffffffffffffffffffffffffffffffffffffff021916908373ffffffffffffffffffffffffffffffffffffffff1602179055508173ffffffffffffffffffffffffffffffffffffffff168173ffffffffffffffffffffffffffffffffffffffff167f8be0079c531659141344cd1fd0a4f28419497f9722a3daafe3b4186f6b6457e060405160405180910390a35050565b60008060006113c885856118ad565b91509150600060048111156113e0576113df612f96565b5b8160048111156113f3576113f2612f96565b5b14801561142b57508573ffffffffffffffffffffffffffffffffffffffff168273ffffffffffffffffffffffffffffffffffffffff16145b8061143d575061143c86868661108a565b5b925050509392505050565b8060026000848152602001908152602001600020819055505050565b60608282905067ffffffffffffffff81111561148357611482611c29565b5b6040519080825280602002602001820160405280156114b657816020015b60608152602001906001900390816114a15790505b50905060005b8383905081101561162b576000801b851461155b5760008484838181106114e6576114e5612fc5565b5b90506020028101906114f89190613003565b60049060249261150a93929190613070565b9061151591906130b6565b9050858114611559576040517f08c379a000000000000000000000000000000000000000000000000000000000815260040161155090613187565b60405180910390fd5b505b6000803073ffffffffffffffffffffffffffffffffffffffff1686868581811061158857611587612fc5565b5b905060200281019061159a9190613003565b6040516115a89291906131cc565b600060405180830381855af49150503d80600081146115e3576040519150601f19603f3d011682016040523d82523d6000602084013e6115e8565b606091505b5091509150816115f757600080fd5b8084848151811061160b5761160a612fc5565b5b602002602001018190525050508080611623906131e5565b9150506114bc565b509392505050565b818160036000600160008a815260200190815260200160002060009054906101000a900467ffffffffffffffff1667ffffffffffffffff1667ffffffffffffffff168152602001908152602001600020600088815260200190815260200160002086866040516116a4929190612855565b908152602001604051809103902091826116bf929190613238565b5083836040516116d0929190612855565b6040518091039020857f448bc014f1536726cf8d54ff3d6481ed3cbc683c2591ca204274009afa09b1a18686868660405161170e9493929190613335565b60405180910390a35050505050565b600060285b6000811115611798576001810390507f3031323334353637383961626364656600000000000000000000000000000000600f84161a81536010830492506001810390507f3031323334353637383961626364656600000000000000000000000000000000600f84161a8153601083049250611722565b5060286000209050919050565b60003373ffffffffffffffffffffffffffffffffffffffff168273ffffffffffffffffffffffffffffffffffffffff1614806117e757506117e68233610fda565b5b611826576040517f08c379a000000000000000000000000000000000000000000000000000000000815260040161181d90613408565b60405180910390fd5b919050565b60007f4fbf0433000000000000000000000000000000000000000000000000000000007bffffffffffffffffffffffffffffffffffffffffffffffffffffffff1916827bffffffffffffffffffffffffffffffffffffffffffffffffffffffff1916148061189e575061189d826118fe565b5b9050919050565b600033905090565b60008060418351036118ee5760008060006020860151925060408601519150606086015160001a90506118e287828585611968565b945094505050506118f7565b60006002915091505b9250929050565b60007f01ffc9a7000000000000000000000000000000000000000000000000000000007bffffffffffffffffffffffffffffffffffffffffffffffffffffffff1916827bffffffffffffffffffffffffffffffffffffffffffffffffffffffff1916149050919050565b6000807f7fffffffffffffffffffffffffffffff5d576e7357a4501ddfe92f46681b20a08360001c11156119a3576000600391509150611a41565b6000600187878787604051600081526020016040526040516119c89493929190613444565b6020604051602081039080840390855afa1580156119ea573d6000803e3d6000fd5b505050602060405103519050600073ffffffffffffffffffffffffffffffffffffffff168173ffffffffffffffffffffffffffffffffffffffff1603611a3857600060019250925050611a41565b80600092509250505b94509492505050565b6000604051905090565b600080fd5b600080fd5b60007fffffffff0000000000000000000000000000000000000000000000000000000082169050919050565b611a9381611a5e565b8114611a9e57600080fd5b50565b600081359050611ab081611a8a565b92915050565b600060208284031215611acc57611acb611a54565b5b6000611ada84828501611aa1565b91505092915050565b60008115159050919050565b611af881611ae3565b82525050565b6000602082019050611b136000830184611aef565b92915050565b6000819050919050565b611b2c81611b19565b8114611b3757600080fd5b50565b600081359050611b4981611b23565b92915050565b600060208284031215611b6557611b64611a54565b5b6000611b7384828501611b3a565b91505092915050565b6000819050919050565b611b8f81611b7c565b82525050565b6000602082019050611baa6000830184611b86565b92915050565b600073ffffffffffffffffffffffffffffffffffffffff82169050919050565b6000611bdb82611bb0565b9050919050565b611beb81611bd0565b8114611bf657600080fd5b50565b600081359050611c0881611be2565b92915050565b600080fd5b600080fd5b6000601f19601f8301169050919050565b7f4e487b7100000000000000000000000000000000000000000000000000000000600052604160045260246000fd5b611c6182611c18565b810181811067ffffffffffffffff82111715611c8057611c7f611c29565b5b80604052505050565b6000611c93611a4a565b9050611c9f8282611c58565b919050565b600067ffffffffffffffff821115611cbf57611cbe611c29565b5b611cc882611c18565b9050602081019050919050565b82818337600083830152505050565b6000611cf7611cf284611ca4565b611c89565b905082815260208101848484011115611d1357611d12611c13565b5b611d1e848285611cd5565b509392505050565b600082601f830112611d3b57611d3a611c0e565b5b8135611d4b848260208601611ce4565b91505092915050565b611d5d81611b7c565b8114611d6857600080fd5b50565b600081359050611d7a81611d54565b92915050565b600067ffffffffffffffff821115611d9b57611d9a611c29565b5b611da482611c18565b9050602081019050919050565b6000611dc4611dbf84611d80565b611c89565b905082815260208101848484011115611de057611ddf611c13565b5b611deb848285611cd5565b509392505050565b600082601f830112611e0857611e07611c0e565b5b8135611e18848260208601611db1565b91505092915050565b600080600080600060a08688031215611e3d57611e3c611a54565b5b6000611e4b88828901611bf9565b9550506020611e5c88828901611bf9565b945050604086013567ffffffffffffffff811115611e7d57611e7c611a59565b5b611e8988828901611d26565b9350506060611e9a88828901611d6b565b925050608086013567ffffffffffffffff811115611ebb57611eba611a59565b5b611ec788828901611df3565b9150509295509295909350565b611edd81611b19565b82525050565b6000602082019050611ef86000830184611ed4565b92915050565b600080fd5b600080fd5b60008083601f840112611f1e57611f1d611c0e565b5b8235905067ffffffffffffffff811115611f3b57611f3a611efe565b5b602083019150836001820283011115611f5757611f56611f03565b5b9250929050565b600080600060408486031215611f7757611f76611a54565b5b6000611f8586828701611b3a565b935050602084013567ffffffffffffffff811115611fa657611fa5611a59565b5b611fb286828701611f08565b92509250509250925092565b600081519050919050565b600082825260208201905092915050565b60005b83811015611ff8578082015181840152602081019050611fdd565b60008484015250505050565b600061200f82611fbe565b6120198185611fc9565b9350612029818560208601611fda565b61203281611c18565b840191505092915050565b600060208201905081810360008301526120578184612004565b905092915050565b6000806000806080858703121561207957612078611a54565b5b600061208787828801611bf9565b945050602085013567ffffffffffffffff8111156120a8576120a7611a59565b5b6120b487828801611d26565b93505060406120c587828801611d6b565b925050606085013567ffffffffffffffff8111156120e6576120e5611a59565b5b6120f287828801611df3565b91505092959194509250565b61210781611bd0565b82525050565b600060208201905061212260008301846120fe565b92915050565b6000806000806040858703121561214257612141611a54565b5b600085013567ffffffffffffffff8111156121605761215f611a59565b5b61216c87828801611f08565b9450945050602085013567ffffffffffffffff81111561218f5761218e611a59565b5b61219b87828801611f08565b925092505092959194509250565b60008083601f8401126121bf576121be611c0e565b5b8235905067ffffffffffffffff8111156121dc576121db611efe565b5b6020830191508360208202830111156121f8576121f7611f03565b5b9250929050565b6000806020838503121561221657612215611a54565b5b600083013567ffffffffffffffff81111561223457612233611a59565b5b612240858286016121a9565b92509250509250929050565b600081519050919050565b600082825260208201905092915050565b6000819050602082019050919050565b600081519050919050565b600082825260208201905092915050565b600061229f82612278565b6122a98185612283565b93506122b9818560208601611fda565b6122c281611c18565b840191505092915050565b60006122d98383612294565b905092915050565b6000602082019050919050565b60006122f98261224c565b6123038185612257565b93508360208202850161231585612268565b8060005b85811015612351578484038952815161233285826122cd565b945061233d836122e1565b925060208a01995050600181019050612319565b50829750879550505050505092915050565b6000602082019050818103600083015261237d81846122ee565b905092915050565b60008060008060008060008060c0898b0312156123a5576123a4611a54565b5b60006123b38b828c01611bf9565b98505060206123c48b828c01611bf9565b975050604089013567ffffffffffffffff8111156123e5576123e4611a59565b5b6123f18b828c01611f08565b9650965050606089013567ffffffffffffffff81111561241457612413611a59565b5b6124208b828c01611f08565b945094505060806124338b828c01611d6b565b92505060a089013567ffffffffffffffff81111561245457612453611a59565b5b6124608b828c01611df3565b9150509295985092959890939650565b60006020828403121561248657612485611a54565b5b600061249484828501611bf9565b91505092915050565b600080600080600080600060a0888a0312156124bc576124bb611a54565b5b60006124ca8a828b01611bf9565b975050602088013567ffffffffffffffff8111156124eb576124ea611a59565b5b6124f78a828b01611f08565b9650965050604088013567ffffffffffffffff81111561251a57612519611a59565b5b6125268a828b01611f08565b945094505060606125398a828b01611d6b565b925050608088013567ffffffffffffffff81111561255a57612559611a59565b5b6125668a828b01611df3565b91505092959891949750929550565b60006020828403121561258b5761258a611a54565b5b600082013567ffffffffffffffff8111156125a9576125a8611a59565b5b6125b584828501611d26565b91505092915050565b600080604083850312156125d5576125d4611a54565b5b60006125e385828601611bf9565b925050602083013567ffffffffffffffff81111561260457612603611a59565b5b61261085828601611d26565b9150509250929050565b60008060006040848603121561263357612632611a54565b5b600061264186828701611b3a565b935050602084013567ffffffffffffffff81111561266257612661611a59565b5b61266e868287016121a9565b92509250509250925092565b60008060008060006060868803121561269657612695611a54565b5b60006126a488828901611bf9565b955050602086013567ffffffffffffffff8111156126c5576126c4611a59565b5b6126d188828901611f08565b9450945050604086013567ffffffffffffffff8111156126f4576126f3611a59565b5b61270088828901611f08565b92509250509295509295909350565b6000819050919050565b61272a61272582611a5e565b61270f565b82525050565b60008160601b9050919050565b600061274882612730565b9050919050565b600061275a8261273d565b9050919050565b61277261276d82611bd0565b61274f565b82525050565b600081905092915050565b600061278e82611fbe565b6127988185612778565b93506127a8818560208601611fda565b80840191505092915050565b6000819050919050565b6127cf6127ca82611b7c565b6127b4565b82525050565b60006127e18288612719565b6004820191506127f18287612761565b6014820191506128018286612761565b6014820191506128118285612783565b915061281d82846127be565b6020820191508190509695505050505050565b600061283c8385612778565b9350612849838584611cd5565b82840190509392505050565b6000612862828486612830565b91508190509392505050565b7f4e487b7100000000000000000000000000000000000000000000000000000000600052602260045260246000fd5b600060028204905060018216806128b557607f821691505b6020821081036128c8576128c761286e565b5b50919050565b60006128da8287612719565b6004820191506128ea8286612761565b6014820191506128fa8285612783565b915061290682846127be565b60208201915081905095945050505050565b6000612924828b612719565b600482019150612934828a612761565b6014820191506129448289612761565b601482019150612955828789612830565b9150612962828587612830565b915061296e82846127be565b6020820191508190509998505050505050505050565b6000819050919050565b61299f61299a82611b19565b612984565b82525050565b60006129b1828561298e565b6020820191506129c1828461298e565b6020820191508190509392505050565b60006129dd828a612719565b6004820191506129ed8289612761565b6014820191506129fe828789612830565b9150612a0b828587612830565b9150612a1782846127be565b60208201915081905098975050505050505050565b7f4e487b7100000000000000000000000000000000000000000000000000000000600052601160045260246000fd5b600067ffffffffffffffff82169050919050565b6000612a7a82612a5b565b915067ffffffffffffffff8203612a9457612a93612a2c565b5b600182019050919050565b612aa881612a5b565b82525050565b6000602082019050612ac36000830184612a9f565b92915050565b7f4f776e61626c653a206e6577206f776e657220697320746865207a65726f206160008201527f6464726573730000000000000000000000000000000000000000000000000000602082015250565b6000612b25602683611fc9565b9150612b3082612ac9565b604082019050919050565b60006020820190508181036000830152612b5481612b18565b9050919050565b600081519050612b6a81611be2565b92915050565b600060208284031215612b8657612b85611a54565b5b6000612b9484828501612b5b565b91505092915050565b600082825260208201905092915050565b6000612bb982612278565b612bc38185612b9d565b9350612bd3818560208601611fda565b612bdc81611c18565b840191505092915050565b6000604082019050612bfc6000830185611ed4565b8181036020830152612c0e8184612bae565b90509392505050565b600081905092915050565b6000612c2d82612278565b612c378185612c17565b9350612c47818560208601611fda565b80840191505092915050565b6000612c5f8284612c22565b915081905092915050565b600081519050612c7981611b23565b92915050565b600060208284031215612c9557612c94611a54565b5b6000612ca384828501612c6a565b91505092915050565b60008190508160005260206000209050919050565b60006020601f8301049050919050565b600082821b905092915050565b600060088302612d0e7fffffffffffffffffffffffffffffffffffffffffffffffffffffffffffffffff82612cd1565b612d188683612cd1565b95508019841693508086168417925050509392505050565b6000819050919050565b6000612d55612d50612d4b84611b7c565b612d30565b611b7c565b9050919050565b6000819050919050565b612d6f83612d3a565b612d83612d7b82612d5c565b848454612cde565b825550505050565b600090565b612d98612d8b565b612da3818484612d66565b505050565b5b81811015612dc757612dbc600082612d90565b600181019050612da9565b5050565b601f821115612e0c57612ddd81612cac565b612de684612cc1565b81016020851015612df5578190505b612e09612e0185612cc1565b830182612da8565b50505b505050565b600082821c905092915050565b6000612e2f60001984600802612e11565b1980831691505092915050565b6000612e488383612e1e565b9150826002028217905092915050565b612e6182611fbe565b67ffffffffffffffff811115612e7a57612e79611c29565b5b612e84825461289d565b612e8f828285612dcb565b600060209050601f831160018114612ec25760008415612eb0578287015190505b612eba8582612e3c565b865550612f22565b601f198416612ed086612cac565b60005b82811015612ef857848901518255600182019150602085019450602081019050612ed3565b86831015612f155784890151612f11601f891682612e1e565b8355505b6001600288020188555050505b505050505050565b7f4f776e61626c653a2063616c6c6572206973206e6f7420746865206f776e6572600082015250565b6000612f60602083611fc9565b9150612f6b82612f2a565b602082019050919050565b60006020820190508181036000830152612f8f81612f53565b9050919050565b7f4e487b7100000000000000000000000000000000000000000000000000000000600052602160045260246000fd5b7f4e487b7100000000000000000000000000000000000000000000000000000000600052603260045260246000fd5b600080fd5b600080fd5b600080fd5b600080833560016020038436030381126130205761301f612ff4565b5b80840192508235915067ffffffffffffffff82111561304257613041612ff9565b5b60208301925060018202360383131561305e5761305d612ffe565b5b509250929050565b600080fd5b600080fd5b6000808585111561308457613083613066565b5b838611156130955761309461306b565b5b6001850283019150848603905094509492505050565b600082905092915050565b60006130c283836130ab565b826130cd8135611b19565b9250602082101561310d576131087fffffffffffffffffffffffffffffffffffffffffffffffffffffffffffffffff83602003600802612cd1565b831692505b505092915050565b7f6d756c746963616c6c3a20416c6c207265636f726473206d757374206861766560008201527f2061206d61746368696e67206e616d6568617368000000000000000000000000602082015250565b6000613171603483611fc9565b915061317c82613115565b604082019050919050565b600060208201905081810360008301526131a081613164565b9050919050565b60006131b38385612c17565b93506131c0838584611cd5565b82840190509392505050565b60006131d98284866131a7565b91508190509392505050565b60006131f082611b7c565b91507fffffffffffffffffffffffffffffffffffffffffffffffffffffffffffffffff820361322257613221612a2c565b5b600182019050919050565b600082905092915050565b613242838361322d565b67ffffffffffffffff81111561325b5761325a611c29565b5b613265825461289d565b613270828285612dcb565b6000601f83116001811461329f576000841561328d578287013590505b6132978582612e3c565b8655506132ff565b601f1984166132ad86612cac565b60005b828110156132d5578489013582556001820191506020850194506020810190506132b0565b868310156132f257848901356132ee601f891682612e1e565b8355505b6001600288020188555050505b50505050505050565b60006133148385611fc9565b9350613321838584611cd5565b61332a83611c18565b840190509392505050565b60006040820190508181036000830152613350818688613308565b90508181036020830152613365818486613308565b905095945050505050565b7f526576657273655265676973747261723a2043616c6c6572206973206e6f742060008201527f6120636f6e74726f6c6c6572206f7220617574686f726973656420627920616460208201527f6472657373206f7220746865206164647265737320697473656c660000000000604082015250565b60006133f2605b83611fc9565b91506133fd82613370565b606082019050919050565b60006020820190508181036000830152613421816133e5565b9050919050565b600060ff82169050919050565b61343e81613428565b82525050565b60006080820190506134596000830187611ed4565b6134666020830186613435565b6134736040830185611ed4565b6134806060830184611ed4565b9594505050505056fea264697066735822122037911d7d1713ab7e6739c630535952e815fdf15b8c0a4d98560c635fe583300964736f6c63430008130033",
  "linkReferences": {},
  "deployedLinkReferences": {}
}